{
  "contractName": "CertificationData",
  "abi": [
    {
      "anonymous": false,
      "inputs": [
        {
          "indexed": true,
          "internalType": "address",
          "name": "user",
          "type": "address"
        },
        {
          "indexed": false,
          "internalType": "string",
          "name": "level",
          "type": "string"
        },
        {
          "indexed": false,
          "internalType": "string",
          "name": "issueDate",
          "type": "string"
        },
        {
          "indexed": false,
          "internalType": "string",
          "name": "expiryDate",
          "type": "string"
        },
        {
          "indexed": false,
          "internalType": "string",
          "name": "center",
          "type": "string"
        },
        {
          "indexed": false,
          "internalType": "string",
          "name": "startDate",
          "type": "string"
        },
        {
          "indexed": false,
          "internalType": "string",
          "name": "endDate",
          "type": "string"
        }
      ],
      "name": "CertificationAdded",
      "type": "event"
    },
    {
      "inputs": [
        {
          "internalType": "string",
          "name": "level",
          "type": "string"
        },
        {
          "internalType": "string",
          "name": "issueDate",
          "type": "string"
        },
        {
          "internalType": "string",
          "name": "expiryDate",
          "type": "string"
        },
        {
          "internalType": "string",
          "name": "center",
          "type": "string"
        },
        {
          "internalType": "string",
          "name": "startDate",
          "type": "string"
        },
        {
          "internalType": "string",
          "name": "endDate",
          "type": "string"
        }
      ],
      "name": "addCertification",
      "outputs": [],
      "stateMutability": "nonpayable",
      "type": "function"
    },
    {
      "inputs": [
        {
          "internalType": "address",
          "name": "user",
          "type": "address"
        }
      ],
      "name": "getCertifications",
      "outputs": [
        {
          "components": [
            {
              "internalType": "string",
              "name": "level",
              "type": "string"
            },
            {
              "internalType": "string",
              "name": "issueDate",
              "type": "string"
            },
            {
              "internalType": "string",
              "name": "expiryDate",
              "type": "string"
            },
            {
              "internalType": "string",
              "name": "center",
              "type": "string"
            },
            {
              "internalType": "string",
              "name": "startDate",
              "type": "string"
            },
            {
              "internalType": "string",
              "name": "endDate",
              "type": "string"
            }
          ],
          "internalType": "struct CertificationData.Certification[]",
          "name": "",
          "type": "tuple[]"
        }
      ],
      "stateMutability": "view",
      "type": "function",
      "constant": true
    }
  ],
  "bytecode": "0x608060405234801561001057600080fd5b50610d13806100206000396000f3fe608060405234801561001057600080fd5b50600436106100365760003560e01c806322ea4ed51461003b578063677cc29114610057575b600080fd5b6100556004803603810190610050919061077d565b610087565b005b610071600480360381019061006c9190610754565b61022b565b60405161007e9190610a3d565b60405180910390f35b6000803373ffffffffffffffffffffffffffffffffffffffff1673ffffffffffffffffffffffffffffffffffffffff1681526020019081526020016000206040518060c001604052808881526020018781526020018681526020018581526020018481526020018381525090806001815401808255809150506001900390600052602060002090600602016000909190919091506000820151816000019080519060200190610137929190610634565b506020820151816001019080519060200190610154929190610634565b506040820151816002019080519060200190610171929190610634565b50606082015181600301908051906020019061018e929190610634565b5060808201518160040190805190602001906101ab929190610634565b5060a08201518160050190805190602001906101c8929190610634565b5050503373ffffffffffffffffffffffffffffffffffffffff167f71e84796f802bf7db16944c0f10c1f5427941c8b3a72b9b50da81438555cd75387878787878760405161021b96959493929190610a5f565b60405180910390a2505050505050565b60606000808373ffffffffffffffffffffffffffffffffffffffff1673ffffffffffffffffffffffffffffffffffffffff168152602001908152602001600020805480602002602001604051908101604052809291908181526020016000905b8282101561062957838290600052602060002090600602016040518060c00160405290816000820180546102be90610c25565b80601f01602080910402602001604051908101604052809291908181526020018280546102ea90610c25565b80156103375780601f1061030c57610100808354040283529160200191610337565b820191906000526020600020905b81548152906001019060200180831161031a57829003601f168201915b5050505050815260200160018201805461035090610c25565b80601f016020809104026020016040519081016040528092919081815260200182805461037c90610c25565b80156103c95780601f1061039e576101008083540402835291602001916103c9565b820191906000526020600020905b8154815290600101906020018083116103ac57829003601f168201915b505050505081526020016002820180546103e290610c25565b80601f016020809104026020016040519081016040528092919081815260200182805461040e90610c25565b801561045b5780601f106104305761010080835404028352916020019161045b565b820191906000526020600020905b81548152906001019060200180831161043e57829003601f168201915b5050505050815260200160038201805461047490610c25565b80601f01602080910402602001604051908101604052809291908181526020018280546104a090610c25565b80156104ed5780601f106104c2576101008083540402835291602001916104ed565b820191906000526020600020905b8154815290600101906020018083116104d057829003601f168201915b5050505050815260200160048201805461050690610c25565b80601f016020809104026020016040519081016040528092919081815260200182805461053290610c25565b801561057f5780601f106105545761010080835404028352916020019161057f565b820191906000526020600020905b81548152906001019060200180831161056257829003601f168201915b5050505050815260200160058201805461059890610c25565b80601f01602080910402602001604051908101604052809291908181526020018280546105c490610c25565b80156106115780601f106105e657610100808354040283529160200191610611565b820191906000526020600020905b8154815290600101906020018083116105f457829003601f168201915b5050505050815250508152602001906001019061028b565b505050509050919050565b82805461064090610c25565b90600052602060002090601f01602090048101928261066257600085556106a9565b82601f1061067b57805160ff19168380011785556106a9565b828001600101855582156106a9579182015b828111156106a857825182559160200191906001019061068d565b5b5090506106b691906106ba565b5090565b5b808211156106d35760008160009055506001016106bb565b5090565b60006106ea6106e584610b1b565b610aea565b90508281526020810184848401111561070257600080fd5b61070d848285610be3565b509392505050565b60008135905061072481610cc6565b92915050565b600082601f83011261073b57600080fd5b813561074b8482602086016106d7565b91505092915050565b60006020828403121561076657600080fd5b600061077484828501610715565b91505092915050565b60008060008060008060c0878903121561079657600080fd5b600087013567ffffffffffffffff8111156107b057600080fd5b6107bc89828a0161072a565b965050602087013567ffffffffffffffff8111156107d957600080fd5b6107e589828a0161072a565b955050604087013567ffffffffffffffff81111561080257600080fd5b61080e89828a0161072a565b945050606087013567ffffffffffffffff81111561082b57600080fd5b61083789828a0161072a565b935050608087013567ffffffffffffffff81111561085457600080fd5b61086089828a0161072a565b92505060a087013567ffffffffffffffff81111561087d57600080fd5b61088989828a0161072a565b9150509295509295509295565b60006108a28383610991565b905092915050565b60006108b582610b5b565b6108bf8185610b7e565b9350836020820285016108d185610b4b565b8060005b8581101561090d57848403895281516108ee8582610896565b94506108f983610b71565b925060208a019950506001810190506108d5565b50829750879550505050505092915050565b600061092a82610b66565b6109348185610b8f565b9350610944818560208601610bf2565b61094d81610cb5565b840191505092915050565b600061096382610b66565b61096d8185610ba0565b935061097d818560208601610bf2565b61098681610cb5565b840191505092915050565b600060c08301600083015184820360008601526109ae828261091f565b915050602083015184820360208601526109c8828261091f565b915050604083015184820360408601526109e2828261091f565b915050606083015184820360608601526109fc828261091f565b91505060808301518482036080860152610a16828261091f565b91505060a083015184820360a0860152610a30828261091f565b9150508091505092915050565b60006020820190508181036000830152610a5781846108aa565b905092915050565b600060c0820190508181036000830152610a798189610958565b90508181036020830152610a8d8188610958565b90508181036040830152610aa18187610958565b90508181036060830152610ab58186610958565b90508181036080830152610ac98185610958565b905081810360a0830152610add8184610958565b9050979650505050505050565b6000604051905081810181811067ffffffffffffffff82111715610b1157610b10610c86565b5b8060405250919050565b600067ffffffffffffffff821115610b3657610b35610c86565b5b601f19601f8301169050602081019050919050565b6000819050602082019050919050565b600081519050919050565b600081519050919050565b6000602082019050919050565b600082825260208201905092915050565b600082825260208201905092915050565b600082825260208201905092915050565b6000610bbc82610bc3565b9050919050565b600073ffffffffffffffffffffffffffffffffffffffff82169050919050565b82818337600083830152505050565b60005b83811015610c10578082015181840152602081019050610bf5565b83811115610c1f576000848401525b50505050565b60006002820490506001821680610c3d57607f821691505b60208210811415610c5157610c50610c57565b5b50919050565b7f4e487b7100000000000000000000000000000000000000000000000000000000600052602260045260246000fd5b7f4e487b7100000000000000000000000000000000000000000000000000000000600052604160045260246000fd5b6000601f19601f8301169050919050565b610ccf81610bb1565b8114610cda57600080fd5b5056fea26469706673582212209fed9b8eb4c748be918f7e217bd64f1f2c262d1f3cae1e5a538803864157c44c64736f6c63430008000033",
  "immutableReferences": {},
  "source": "// SPDX-License-Identifier: MIT\npragma solidity ^0.8.0;\n\ncontract CertificationData {\n    struct Certification {\n        string level;\n        string issueDate;\n        string expiryDate;\n        string center;\n        string startDate;\n        string endDate;\n    }\n\n    mapping(address => Certification[]) private certifications;\n\n    event CertificationAdded(\n        address indexed user,\n        string level,\n        string issueDate,\n        string expiryDate,\n        string center,\n        string startDate,\n        string endDate\n    );\n\n    function addCertification(\n        string memory level,\n        string memory issueDate,\n        string memory expiryDate,\n        string memory center,\n        string memory startDate,\n        string memory endDate\n    ) public {\n        certifications[msg.sender].push(\n            Certification(level, issueDate, expiryDate, center, startDate, endDate)\n        );\n\n        emit CertificationAdded(msg.sender, level, issueDate, expiryDate, center, startDate, endDate);\n    }\n\n    function getCertifications(address user) public view returns (Certification[] memory) {\n        return certifications[user];\n    }\n}\n",
  "sourcePath": "/Users/berkeroglu/Desktop/ScubaChain/smartContract/contracts/LicenseStorage.sol",
  "compiler": {
    "name": "solc",
    "version": "0.8.0+commit.c7dfd78e.Emscripten.clang"
  },
  "schemaVersion": "3.4.16",
  "updatedAt": "2024-12-23T09:39:44.259Z",
  "networkType": "ethereum",
  "devdoc": {
    "kind": "dev",
    "methods": {},
    "version": 1
  },
  "userdoc": {
    "kind": "user",
    "methods": {},
    "version": 1
  }
}